:100000000C9443000C947F060C9475060C946000CD
:100010000C9460000C9460000C9460000C946000E0
:100020000C9460000C9460000C9498060C94600092
:100030000C9460000C9460000C9460000C946000C0
:100040000C9489060C9460000C94D4030C9460000A
:100050000C946F030C9460000C9460000C9460008E
:100060000C9460000C94600026022E0234024202BE
:1000700052025B0266026F027802A002A0028602B0
:100080009402A102A10211241FBECFEFD8E0DEBF6F
:10009000CDBF11E0A0E0B1E0E8EEFDE002C00590C8
:1000A0000D92A630B107D9F726E0A6E0B1E001C075
:1000B0001D92AD3AB207E1F70E94D3060C94F20606
:1000C0000C940000E5E6F6E03896CDE5D6E02896FB
:1000D00078E044980000449A58E06A9188943299F4
:1000E0000894441F60FF419860FD419A67950000A5
:1000F00000000000459A0000000045985A9571F7ED
:10010000409542937A9541F743980000439A0895A9
:100110000895962FA2E5B1E0FB018E2F891B84176D
:1001200018F481918D93F9CF4093510181E0809330
:1001300007010895109209010895E2E2F1E081E2D9
:10014000808384E28183109200018FEF8093060107
:100150000E94A50480E008950E949D0081E08093A4
:1001600009010895CF93209108012223E1F001971E
:1001700022E5209322019C013695279536952795F7
:1001800020932301C82FC370CC0F6170C62B8C2F16
:100190008868809324010E94A504C068C09324014C
:1001A000CF910C94A504CF91089589E890E09093A5
:1001B00015018093140188E890E090930D018093DD
:1001C0000C018CEA90E090931301809312018AE96C
:1001D00090E09093110180931001089564FB222711
:1001E00020F930E090E0880F991F822B932B20910B
:1001F0000001211109C02091060130E08217930708
:1002000019F421E020930001262F2370880F991FF5
:10021000213021F0223041F421E001C022E0FC0134
:10022000EE56FE4F208304C0FC01EE56FE4F1082B6
:100230006C7070E07595679575956795613071057F
:1002400041F06230710559F4FC01EE56FE4F21E099
:1002500004C0FC01EE56FE4F22E021830895FC010C
:10026000EE56FE4F118208950F931F93CF93DF93A5
:10027000809151018330D9F490915201913629F443
:100280008091530181114DC00AC0913809F04EC0D0
:100290009091530191112CC029C0823019F4109211
:1002A000080144C0813809F041C00E940E058091C8
:1002B00051018430E9F4909152019236C9F4909141
:1002C00053019232A9F490910001911107C09091CD
:1002D00006019F3F19F491E0909300019091540121
:1002E0009B7421F491E09093080102C010920801E0
:1002F000909152019234E1F4825080935101C2E511
:10030000D1E001E010E08091510190E00817190759
:1003100078F46A8189810E94EE000E5F1F4F229659
:10032000F2CF813009F0B9CF8093080183E0E0CFAC
:10033000DF91CF911F910F9108958091070188233C
:1003400021F0109207010E9434010C94C4040F9311
:100350001F93CF93DF93C62FFC0131978C010E566C
:100360001E4FD80112968C91813011F0D1E001C05E
:10037000D2E0EE56FE4F8081813011F461E001C081
:1003800060E08C2F0E945905F801908181E08C0F6C
:10039000913011F46D2F01C060E00E945905D80121
:1003A00011969C9182E08C0F913011F46D2F01C059
:1003B00060E0DF91CF911F910F910C9459050F933D
:1003C0001F93CF93DF93C62FFC0131978C010E56FC
:1003D0001E4FD80111968C91813011F0D1E001C0EF
:1003E000D2E0EE56FE4F8081813011F46D2F01C0B6
:1003F00060E08C2F0E945905F801908181E08C0FFC
:10040000913011F46D2F01C060E0DF91CF911F9109
:100410000F910C945905262F8F569E4FFC01808119
:10042000813011F461E001C060E0822F0C94590525
:10043000E0910A018E2F90E0FC013197EF30F10539
:1004400008F07EC0EC5CFF4F0C94EC0695B188E0A0
:10045000892785B96DE385EF91E003C06AE389EFF1
:1004600091E00E94A7016DC062E38DEF91E00E94D0
:10047000DF0168E280E092E00E94DF0161E183E059
:1004800092E00DC06CE086E092E00E94DF016EE039
:1004900089E092E00E94DF0160E18CE092E00E943E
:1004A000DF014FC062E18FE092E00E940B0263E146
:1004B00080E192E008C064E181E192E00E940B02D9
:1004C00065E182E192E00E940B023BC066E183E1BC
:1004D00092E00E940B0267E184E192E0F4CF68E1D0
:1004E00085E192E00E940B0269E186E192E0EBCFA8
:1004F0006BE187E192E00E940B026CE188E192E0FF
:100500000E940B026DE189E192E0DDCF6EE18AE1AC
:1005100092E00E940B026FE18BE192E00E940B02DD
:1005200060E28CE192E0CFCF81E090E00E9436055E
:10053000882339F060E084E090E00E94B20001C0BE
:10054000000080910A01882319F08F5F80930A01CF
:1005500080910A01843210F010920A01089580916E
:100560000B01882381F010920B0180910A01811107
:1005700003C081E080930A0180910101882319F072
:100580008150809301018091090181110E9418021C
:1005900080910901811105C080E58093010163E02C
:1005A00001C060E08AE10C94590581E080930B0161
:1005B000089582E085BDEEE6F0E080818160808371
:1005C000109289001092880010928B0010928A007D
:1005D0008AE196E0909387008093860010928000D5
:1005E0008DE180938100EFE6F0E08081806280837E
:1005F000089580939B058FE090E09093C5008093D1
:10060000C400E0ECF0E080818D7F80835A9886E022
:100610008093C2008CED8093C100089580911901F0
:1006200090911A018E319105A0F4019690931A01D0
:10063000809319014E9769F480911B01882349F03A
:1006400010921B01E0911001F0911101309709F017
:100650000994089580911D01811119C081E0809352
:100660001C0180911F01E82FF0E031978150A2E931
:10067000B5E020E090E0281720F43D9193272F5F0C
:10068000FACFEE56FA4F908380E090E0089581E033
:1006900090E008958091C00085FFFCCF8091C1005B
:1006A0008E7F8093C100E0911E01F0E0EE56FA4F7C
:1006B00080818093C60080911E018F5F80931E0110
:1006C000089581E080931D0110921C0110921E017B
:1006D0005A9A8091C00085FFFCCF0C944A031F9268
:1006E0000F920FB60F9211242F933F934F935F9366
:1006F0006F937F938F939F93AF93BF93EF93FF93EA
:1007000090911E0180911F01981718F40E944A03CE
:1007100003C05A9810921D01FF91EF91BF91AF91C4
:100720009F918F917F916F915F914F913F912F9109
:100730000F900FBE0F901F90189580911D01811191
:1007400007C080911C01811103C080911B0102C070
:1007500080E090E0817008951F93CF93DF93D82FAE
:10076000192FC62F0E949D038823A9F0C930B0F429
:100770009D2FA2E9B5E0ED2FF12F8E2F891B8C174D
:1007800018F481918D93F9CFC0931F010E942A0321
:1007900080E090E005C081E090E002C082E090E05F
:1007A000DF91CF911F9108951F920F920FB60F9274
:1007B00011242F933F934F935F936F937F938F9366
:1007C0009F93AF93BF93CF93EF93FF938091C0001C
:1007D0009091C100C091C6008C7109F0A4C091FF36
:1007E00050C02C2F98E0322F3170832726959150DE
:1007F000D1F7811198C08C2F8F7180939A059091B9
:100800009B05C295C695C77089132CC09C2F937009
:100810009230D9F480911C0181110E9461031092E1
:100820001A01109219010E94F80480911B01811194
:100830007AC081E080931B01E0911201F0911301D5
:10084000309709F470C009956EC091110BC080E219
:10085000809392058093930582E080931F010E940C
:10086000610361C0811108C08C2F8370813021F435
:1008700081E08093170153C0C370C33009F053C0A7
:10088000F7CF80911701811115C090919A05809141
:100890009B0598130FC086B56FE10E94E00681E0CA
:1008A000890F80939B05E0910E01F0910F01309725
:1008B00009F009958091180187FD0DC090911601EE
:1008C0009C2790931601E82FF0E0E456FA4FC0837E
:1008D0008F5F8093180180919C0540911801982F9B
:1008E0009F709E5F4917F8F090911601911115C005
:1008F0008F7180939A0590911701992329F0E091C7
:100900001401F091150104C0E0910C01F0910D016A
:10091000309719F06CE975E0099510921701109263
:10092000160110921801FF91EF91CF91BF91AF91F5
:100930009F918F917F916F915F914F913F912F91F7
:100940000F900FBE0F901F90189590911C0680E09D
:10095000E92FE80FEF7024E0E29FF0011124E35E3D
:10096000F94F2081222321F08F5F803189F708958C
:1009700080912201818380912301828380912401CF
:10098000838381E0808308950F931F93CF93DF9338
:1009900080911C0690E08C01000F111F000F111FA9
:1009A000E801C35ED94F28812130B1F40E949D0334
:1009B0008823C9F0698188818F5F8883833011F42F
:1009C000188211C06F706E5FC801825E994F0E94DD
:1009D000AC0382E0888307C0211105C001968F70A7
:1009E000992780931C06DF91CF911F910F91089555
:1009F000E0911C0684E0E89FF0011124E35EF94FCA
:100A00008081823051F4809120018F5F809320019A
:100A1000803118F0108210922001089580912101F8
:100A20008F5F80932101E0911C0684E0E89FF00134
:100A30001124E35EF94F8081823021F4109220016D
:100A400081E08083089515B888E188B91BB888E0F3
:100A500084B98AE387B984E08AB9EDE6F6E01082CA
:100A6000118212821382148215820895FC0193E090
:100A7000F695E7959A95E1F7FF27E05CFE4F308108
:100A8000282F2770832F90E0022E02C0959587951E
:100A90000A94E2F780FF0BC081E090E001C0880F6C
:100AA0002A95EAF780958323808381E0089580E08A
:100AB0000895E82FF0E0E359F94F60830895282F57
:100AC00026952695269530E0782F7770F901E75B1B
:100AD000FE4F408150E0072E02C0559547950A947D
:100AE000E2F74170F901E45BFE4FE081F0E0072E90
:100AF00002C0F595E7950A94E2F7E17090E04E1791
:100B000049F0FC01E75DFE4F80818F5F80834111DA
:100B100006C013C0FC01E75DFE4F108208958930C6
:100B2000E0F0F901EA5BFE4F81E090E001C0880F40
:100B30007A95EAF79081892B0EC0861778F0F90133
:100B4000EA5BFE4F81E090E001C0880F7A95EAF7FA
:100B50008095908189238083089508950895982F22
:100B6000969596959695282F20952770E82FF0E07A
:100B7000E359F94F30813370892F90E0323071F0B2
:100B8000333079F0FC01E35AF94F81E090E001C085
:100B9000880F2A95EAF73130A1F410C03091020194
:100BA00002C030910301FC01E35AF94F81E090E06B
:100BB00001C0880F2A95EAF7332319F09081892B19
:100BC00003C080959081892380830895CF9380917D
:100BD0002801882339F11092280180912601811182
:100BE00003C081E080932601809127018F5F8630CA
:100BF00018F4809327010CC0109227018091020104
:100C0000882319F01092020103C081E08093020151
:100C100080910301882319F01092030103C081E041
:100C20008093030180912601C82FCF73982F92954E
:100C3000969596959370913069F4C11149C00E94C0
:100C4000620080916C068093490180916B068093CD
:100C50004A013EC09230A1F4C13118F0C03360F4B3
:100C600007C08C2F0E94AF056AE08C2F0E945F05A1
:100C70008C2F0E94AF052CC08FEB8093260128C0DB
:100C8000933031F5982F9871903111F58770282F96
:100C900030E0F901E45BFE4F4081D901AD5BBE4F0E
:100CA0009C919427F901E05CFE4F542F59236081F9
:100CB000562B5083F901E35CFE4F242F209592239D
:100CC0002081922B90834C93823011F41092260154
:100CD00080912601882319F08F5F80932601CF91A0
:100CE000089581E08093280108951F920F920FB616
:100CF0000F9211240F900FBE0F901F9018951F9206
:100D00000F920FB60F9211240F900FBE0F901F90ED
:100D100018951F920F920FB60F9211248F9381E0B6
:100D2000809350018F910F900FBE0F901F901895D8
:100D30001F920F920FB60F9211248F9381E0809330
:100D40004F018F910F900FBE0F901F9018958091BB
:100D50004F018823A1F010924F010E9471060E945A
:100D6000D5020E940E038091040190910501019724
:100D700011F480EE9EE290930501809304010895A2
:100D80008091500181111092500108950E94230515
:100D9000529A5A980E94D90289E10E94F9020E944F
:100DA000D500789408950E94C6060E94C0060E944D
:100DB000A7060E94E6050E949D010E94AF02F5CFA2
:100DC000991B79E004C0991F961708F0961B881F9D
:100DD0007A95C9F780950895EE0FFF1F0590F4915D
:080DE000E02D0994F894FFCF07
:060DE80001500101E803C7
:00000001FF
