:100000000C9434000C9436060C9437060C94510072
:100010000C9451000C9451000C9451000C9451001C
:100020000C9451000C9451000C943E060C94510019
:100030000C9451000C9451000C9451000C945100FC
:100040000C9438060C9451000C942D040C9451001F
:100050000C94CA030C9451000C9451000C94510060
:100060000C9451000C94510011241FBECFEFD8E026
:10007000DEBFCDBF11E0A0E0B1E0E2E4FDE002C0F0
:1000800005900D92A630B107D9F726E0A6E0B1E0C1
:1000900001C01D92AA3AB207E1F70E9471060C94C2
:1000A00090060C940000E2E6F6E03896CAE5D6E049
:1000B000289678E044980000449A58E06A91889421
:1000C00032990894441F60FF419860FD419A6795FA
:1000D000000000000000459A0000000045985A9575
:1000E00071F7409542937A9541F743980000439AFF
:1000F000089590914E0180E0E92FE80FEF7024E021
:10010000E29FF0011124E15BFE4F2081222321F0C8
:100110008F5F803189F708958091080181838091F4
:100120000901828380910A01838381E0808308959D
:100130000F931F93CF93DF9380914E0190E08C013A
:10014000000F111F000F111FE801C15BDE4F288156
:100150002130D1F40E94F803882339F06981888125
:100160008F5F8883833031F41882DF91CF911F91A4
:100170000F9108956F706E5FC801805B9E4F0E9463
:10018000060482E08883F1CF2111EFCF01968F70B2
:10019000992780934E01E9CFE0914E0184E0E89FDA
:1001A000F0011124E15BFE4F8081823051F4809197
:1001B00006018F5F80930601803118F01082109243
:1001C00006010895809107018F5F80930701E091F8
:1001D0004E0184E0E89FF0011124E15BFE4F808135
:1001E000823021F41092060181E080830895089501
:1001F000962FA0E9B1E0FB018E2F891B841730F008
:1002000040938F0181E080930D01089581918D933A
:10021000F3CF10920F010895E8E0F1E081E28083CE
:1002200084E28183109200018FEF80930C010E9481
:10023000790080E008950E940C0181E080930F0115
:100240000895CF9320910E012223E1F0019722E53A
:10025000209308019C013695279536952795209384
:100260000901880F86706170C82FC62B8C2F886893
:1002700080930A010E947900C068C0930A01CF915F
:100280000C947900CF91089588EF90E090931B0132
:1002900080931A0187EF90E09093130180931201ED
:1002A0008BE191E0909319018093180189E091E02E
:1002B00090931701809316010895262F30E064FB78
:1002C000EE27E0F9F0E090E0880F991FE82BF92B7A
:1002D00080910001811108C080910C018E171F06CA
:1002E00019F481E0809300016370EE0FFF1FDF01BE
:1002F000A053BE4F613021F06230A1F01C9202C0C9
:1003000082E08C9335952795359527952370332773
:10031000EF52FE4F2130310539F02230310539F0EE
:100320001082089581E0EDCF82E08083089581E01E
:10033000FCCF0F931F93CF93DF9380918F01833076
:1003400069F480919001813661F58091910181116C
:1003500049C010920E0102C080930E0180918F015E
:1003600090919001843039F5923629F58091910170
:10037000823291F480910001811107C080910C01BB
:100380008F3F19F481E080930001809192018B747A
:1003900079F481E080930E01DF91CF911F910F914D
:1003A00008958138D9F6809191018111D7CFD1CFAD
:1003B00010920E01F1CF923479F7825080938F0121
:1003C000C0E9D1E001E010E080918F0180171106B3
:1003D00019F310F36A8189810E945D010E5F1F4F3E
:1003E0002296F2CF813009F4B7CF823009F4B1CF31
:1003F000813809F0B3CF0E94E200B0CF80910D01A7
:10040000882321F010920D010E9499010C9498000C
:100410000F931F93CF93DF93C62F9C012150310977
:100420008C0100531E4FF8018281D1E0813009F424
:10043000D2E020533E4FF901808161E0813009F024
:1004400060E08C2F0E942C0581E08C0FF8019081D8
:100450006D2F913009F060E00E942C0582E08C0F36
:10046000F80191816D2F913009F060E0DF91CF911B
:100470001F910F910C942C050F931F93CF93DF9333
:10048000C62F9C01215031098C0100531E4FF801E9
:100490008181D1E0813009F4D2E020533E4FF9014F
:1004A00080816D2F813009F060E08C2F0E942C0537
:1004B00081E08C0FF80190816D2F913009F060E0A0
:1004C000DF91CF911F910F910C942C05262F815312
:1004D0009E4FFC01808161E0813009F060E0822F55
:1004E0000C942C05E0911001E150EF3008F08BC026
:1004F000F0E0EE56F94F0C948A0685B198E0892712
:1005000085B96DE385EF91E00E94080280911001AA
:10051000882309F47CC08F5F843208F076C0809312
:10052000100108956AE389EF91E0EECF62E38DEF69
:1005300091E00E943C0268E280E092E00E943C026E
:1005400061E183E092E00E943C02E0CF6CE086E053
:1005500092E00E943C026EE089E092E00E943C0240
:1005600060E18CE092E0EFCF62E18FE092E00E94E8
:10057000660263E180E192E00E946602C7CF64E117
:1005800081E192E00E94660265E182E192E0F4CFAF
:1005900066E183E192E00E94660267E184E192E015
:1005A000EBCF68E185E192E00E94660269E186E1B5
:1005B00092E0E2CF6BE187E192E00E9466026CE19B
:1005C00088E192E00E9466026DE189E192E0D4CF79
:1005D0006EE18AE192E00E9466026FE18BE192E0B7
:1005E0000E94660260E28CE192E0C6CF81E090E07A
:1005F0000E940905882309F489CF60E084E090E037
:100600000E94210183CF000081CF10921001089534
:1006100080911101882381F01092110180911001C5
:10062000811103C081E08093100180910101882332
:1006300019F081508093010180910F01811107C051
:1006400080E58093010163E08AE10C942C050E940F
:10065000720280910F01882399F360E0F5CF81E069
:1006600080931101089582E085BDEEE6F0E080817F
:1006700081608083109289001092880010928B0014
:1006800010928A008AE196E090938700809386001A
:10069000109280008DE180938100EFE6F0E0808190
:1006A0008062808308958093D9058FE090E09093D5
:1006B000C5008093C400E0ECF0E080818D7F8083F2
:1006C0005A9886E08093C2008CED8093C100089513
:1006D00080911F01909120018E319105A0F4019627
:1006E0009093200180931F014E9769F4809121011E
:1006F000882349F010922101E0911601F091170131
:10070000309709F0099408958091230181111AC04E
:1007100081E080932201E09125019FEF9E0FE1503F
:10072000FF0B40ED55E0DA0180E02A2F241B29174A
:1007300030F0E053FA4F808390E080E008952D91EF
:100740008227F3CF81E090E008958091C00085FF7B
:10075000FCCF8091C1008E7F8093C100E091240185
:10076000F0E0E053FA4F80818093C600809124012D
:100770008F5F80932401089581E08093230110927C
:100780002201109224015A9A8091C00085FFFCCF6B
:100790000C94A5031F920F920FB60F9211242F9362
:1007A0003F934F935F936F937F938F939F93AF93F9
:1007B000BF93EF93FF9390912401809125019817A7
:1007C00098F40E94A503FF91EF91BF91AF919F9183
:1007D0008F917F916F915F914F913F912F910F90EA
:1007E0000FBE0F901F9018955A9810922301EBCFCF
:1007F00080912301811108C080912201811104C0E0
:10080000809121018170089580E0FCCF1F93CF93E8
:10081000DF93D82F192FC62F0E94F8038823D1F019
:1008200082E090E0C93078F49D2FA0EDB5E0ED2F87
:10083000F12F8E2F891B8C1750F0C09325010E9439
:10084000840390E080E0DF91CF911F910895819122
:100850008D93EFCF81E090E0F6CF1F920F920FB60D
:100860000F9211242F933F934F935F936F937F9336
:100870008F939F93AF93BF93CF93EF93FF93809109
:10088000C0009091C100C091C6008C7191F591FF9C
:100890005EC02C2F98E0322F31708327269591501F
:1008A000D1F7811126C08C2F8F718093D805C29506
:1008B000C695C3709091D90589133AC0C23059F5D5
:1008C0008091220181110E94BC031092200110929C
:1008D0001F010E94CC008091210181110AC081E09A
:1008E00080932101E0911801F0911901309709F0EE
:1008F0000995FF91EF91CF91BF91AF919F918F910A
:100900007F916F915F914F913F912F910F900FBE0B
:100910000F901F901895C1110BC080E28093D005F5
:100920008093D10582E0809325010E94BC03E1CF32
:1009300081110AC0C13041F481E080931D01109201
:100940001C0110921E01D5CFC33099F6F5CF8091CE
:100950001D01811115C09091D8058091D90598137A
:100960000FC086B56FE10E947E0681E0890F8093FB
:10097000D905E0911401F0911501309709F009951E
:1009800080911E0187FD0DC090911C019C279093C2
:100990001C01E82FF0E0E652FA4FC0838F5F80938E
:1009A0001E018091DA0540911E01982F9F709E5F75
:1009B000491708F49ECF90911C01911114C08F71BA
:1009C0008093D80590911D01E0911A01F0911B01CF
:1009D000911104C0E0911201F0911301309719F0C8
:1009E0006AED75E0099510921D01A9CF15B888E14F
:1009F00088B91BB888E084B98AE387B984E08AB9EA
:100A0000EAE6F6E0108211821282138214821582C5
:100A10000895FC0193E0F695E7959A95E1F7FF2795
:100A2000E05CFE4F3081282F2770432F50E0022ECC
:100A300002C0559547950A94E2F740FF0BC081E04C
:100A400090E001C0880F2A95EAF780958323808380
:100A500081E0089580E00895E82FF0E0E659F94F2D
:100A600060830895A82FA695A695A695B0E0482F77
:100A70004770FD01EA5BFE4F208130E0042E02C08A
:100A8000359527950A94E2F72170A75BBE4F3C91FC
:100A9000E82FF0E0832F90E0042E02C09595879513
:100AA0000A94E2F78170E75DFE4F2817D1F090813C
:100AB0009F5F9083211117C0961750F4089581E02D
:100AC00090E001C0880F4A95EAF7832B8C93089534
:100AD00081E090E001C0880F4A95EAF78095832372
:100AE000F5CF10820895993050F70895E82FF0E07F
:100AF000E659F94F50815370E82FE695E695E69553
:100B0000F0E0E65AF94F40818095877021E030E0AF
:100B1000B90102C0660F771F8A95E2F7CB01523008
:100B200039F0533061F0513039F08095842305C09D
:100B3000209102012223C9F3842B80830895209100
:100B40000301F8CFCF93809128018823B1F08091E1
:100B5000260110922801811103C081E080932601B3
:100B6000809127018F5F863058F58093270180910F
:100B70000301882391F11092030180912601C82F6F
:100B8000CF73982F9295969596959370913049F5DD
:100B9000C1110DC00E9453008091680690916906B2
:100BA0009827892798279093470180934601809141
:100BB0002601882319F08F5F80932601CF91089535
:100BC0001092270180910201882319F010920201EE
:100BD000CECF81E080930201CACF81E080930301F0
:100BE000CCCF923079F48FEE8C0F8F3238F08C2F7F
:100BF0000E9476056AE08C2F0E9432058C2F0E949D
:100C00007605D5CF933099F6282F30E093E03595CF
:100C100027959A95E1F72370223049F6982F97701F
:100C2000292F30E0F901E75BFE4F5081D901AD5B20
:100C3000BE4F8C91F901E05CFE4F482F4095452353
:100C40006081462B4083F901E35CFE4F852B8527AD
:100C50002081822B80835C93923009F0A8CF109280
:100C60002601A5CF81E08093280108951895189555
:100C70008F9381E080934D018F9118958F9381E040
:100C800080934C018F91189580914C01882391F0AD
:100C900010924C010E9432060E942F030E946803AA
:100CA0008091040190910501019729F0909305012D
:100CB00080930401089580EE9EE2F8CF80914D016B
:100CC000811110924D0108950E94F604529A5A988B
:100CD0000E94330389E10E9453030E9444017894E7
:100CE00008950E9464060E945E060E9444060E94C7
:100CF000A2050E94FE010E940803F5CF991B79E02E
:100D000004C0991F961708F0961B881F7A95C9F79B
:100D100080950895EE0FFF1F0590F491E02D099442
:100D2000F894FFCF7D0292029602A602B402BF029F
:100D3000C802D102DA0203030303E802F6028602C4
:020D4000860229
:060D420001500101E8036D
:00000001FF
