:100000000C9444000C9415080C940B080C9461009B
:100010000C9461000C9461000C9461000C946100DC
:100020000C9461000C9461000C942E080C946100F7
:100030000C9461000C9461000C9461000C946100BC
:100040000C941F080C9461000C9449050C946100F9
:100050000C94E4040C9461000C9461000C94610015
:100060000C9461000C946100410249024F025D0250
:100070006D02850290029902A202A503A503BF02A8
:10008000CD02020339036D0311241FBECFEFD8E068
:10009000DEBFCDBF11E0A0E0B1E0E4E1F1E102C0DC
:1000A00005900D92A630B107D9F726E0A6E0B1E0A1
:1000B00001C01D92AA3EB207E1F70E9469080C94A4
:1000C00088080C940000E2EAF6E03896CAE9D6E027
:1000D000289678E044980000449A58E06A91889401
:1000E00032990894441F60FF419A60FD41986795DA
:1000F000000000000000459A0000000045985A9555
:1001000071F7409542937A9541F743980000439ADE
:1001100008950895962FAFE4B1E0FB018E2F891B5F
:10012000841718F481918D93F9CF40934E0181E0AB
:100130008093070108951092090108950197E1E263
:10014000F1E022E420839C0136952795369527958A
:10015000218381FB992790F9906892831092000186
:10016000809306010E941A0680E00895E1E2F1E022
:1001700081E2808384E28183109200018FEF80937B
:1001800006010E941A0680E008950E94B60081E0F0
:10019000809309010895CF93209108012223E1F073
:1001A000019722E5209321019C01369527953695EC
:1001B000279520932201C82FC370CC0F6170C62BE6
:1001C0008C2F8868809323010E941A06C068C09310
:1001D0002301CF910C941A06CF9108958AE890E0FC
:1001E000909315018093140189E890E090930D019C
:1001F00080930C0185EC90E09093130180931201A1
:100200008BE990E09093110180931001089564FBB5
:10021000222720F930E090E0880F991F822B932B42
:100220008093250120910001211109C02091060130
:1002300030E08217930719F421E020930001262F64
:100240002370880F991F213021F0223041F421E0E2
:1002500001C022E0FC01E157FE4F208304C0FC01F5
:10026000E157FE4F10826C7070E07595679575953B
:1002700067956130710541F06230710559F4FC01F8
:10028000E157FE4F21E004C0FC01E157FE4F22E0A0
:1002900021830895FC01E157FE4F118208950F93C9
:1002A0001F93CF93DF9380914E018330D9F49091C7
:1002B0004F01913629F48091500181114DC00AC03F
:1002C000913809F04EC09091500191112CC029C075
:1002D000823019F41092080144C0813809F041C0FD
:1002E0000E94830680914E018430E9F490914F0181
:1002F0009236C9F4909150019232A9F49091000184
:10030000911107C0909106019F3F19F491E09093DD
:100310000001909151019B7421F491E090930801A8
:1003200002C01092080190914F019234E1F4825082
:1003300080934E01CFE4D1E001E010E080914E01C6
:1003400090E00817190778F46A8189810E940701F3
:100350000E5F1F4F2296F2CF813009F0B9CF809304
:10036000080183E0E0CFDF91CF911F910F910895B5
:1003700080910701882321F0109207010E944F010C
:100380000C9439060F931F93CF93DF93C62FFC0174
:1003900031978C0101571E4FD80112968C918130F4
:1003A00011F0D1E001C0D2E0E157FE4F80818130F1
:1003B00011F461E001C060E08C2F0E94FF06F8019B
:1003C000908181E08C0F913011F46D2F01C060E0BD
:1003D0000E94FF06D80111969C9182E08C0F91300B
:1003E00011F46D2F01C060E0DF91CF911F910F914B
:1003F0000C94FF060F931F93CF93DF93C62FFC013E
:1004000031978C0101571E4FD80111968C91813084
:1004100011F0D1E001C0D2E0E157FE4F8081813080
:1004200011F46D2F01C060E08C2F0E94FF06F801CF
:10043000908181E08C0F913011F46D2F01C060E04C
:10044000DF91CF911F910F910C94FF06262F8257B9
:100450009E4FFC018081813011F461E001C060E0B9
:10046000822F0C94FF06E0910A018E2F90E0FC0190
:100470003197E031F10508F068C1EC5CFF4F0C9456
:10048000820895B188E0892785B961E185EF91E01F
:1004900003C06DE289EF91E00E94C20157C162E2A0
:1004A0008DEF91E00E94FA0166E280E092E00E9406
:1004B000FA0164E283E092E00DC06BE186E092E035
:1004C0000E94FA0160E289E092E00E94FA016DE187
:1004D0008CE092E00E94FA0139C16CE28DE192E079
:1004E0000E94260260E18EE192E00E94260260E313
:1004F0008FE192E00E9426026BE28FE092E00E9480
:10050000260268E280E192E008C069E281E192E0BF
:100510000E9426026AE282E192E00E94260216C14F
:1005200067E183E192E00E94260265E184E192E0C6
:10053000F4CF66E185E192E00E94260264E186E163
:1005400092E0EBCF68E187E192E00E94260269E148
:1005500088E192E00E9426026AE189E192E00E942D
:10056000260262E38AE192E00E94260263E38BE1C5
:1005700092E00E94260264E38CE192E0CECF65E334
:1005800080E292E00E94260266E381E292E00E940D
:10059000260267E382E292E0C0CF80E090E00E9412
:1005A000B906882329F060E089EC90E00E94CB0036
:1005B00087E090E00E94B906882329F060E08AEC89
:1005C00090E00E94CB0081E090E00E94B906882371
:1005D00029F060E08BEC90E00E94CB0086E090E098
:1005E0000E94B906882329F060E08CEC90E00E941C
:1005F000CB0082E090E00E94B906882309F4A6C0EF
:1006000060E034C080E090E00E94DC06882329F09E
:1006100061E089EC90E00E94CB0087E090E00E94CE
:10062000DC06882329F061E08AEC90E00E94CB0090
:1006300081E090E00E94DC06882329F061E08BECE9
:1006400090E00E94CB0086E090E00E94DC068823C8
:1006500029F061E08CEC90E00E94CB0082E090E019
:100660000E94DC06882309F471C061E08DEC90E003
:1006700069C085E090E00E94B906882329F060E017
:100680008EEC90E00E94CB0083E090E00E94B906DF
:10069000882329F060E08FEC90E00E94CB0084E09A
:1006A00090E00E94B906882329F060E080ED90E098
:1006B0000E94CB0088E090E00E94B906882329F0D0
:1006C00060E081ED90E00E94CB008FE090E00E941E
:1006D000B9068823D9F160E033C085E090E00E943C
:1006E000DC06882329F061E08EEC90E00E94CB00CC
:1006F00083E090E00E94DC06882329F061E08FEC23
:1007000090E00E94CB0084E090E00E94DC06882309
:1007100029F061E080ED90E00E94CB0088E090E05D
:100720000E94DC06882329F061E081ED90E00E94C0
:10073000CB008FE090E00E94DC06882339F061E076
:1007400082ED90E00E94CB0001C0000080910A0180
:10075000882319F08F5F80930A0180910A01843207
:1007600010F010920A010895CF93DF9380910B014E
:10077000811108C080910901882309F47EC00E947C
:1007800033027BC010920B0180910A01811103C0DA
:1007900081E080930A0180910101882319F0815042
:1007A00080930101809101018E3129F08091010136
:1007B0008C31A9F40BC0C5EFD1E0CE010E949E00A0
:1007C0002296C93082E0D807C1F7F0CF0E94980680
:1007D000811105C0809101018F5F8093010180919B
:1007E00001018A3129F0809101018E30A9F40BC0FA
:1007F000C9E0D2E0CE010E949E002296CD3182E077
:10080000D807C1F7F0CF0E949806811105C08091EA
:1008100001018F5F80930101809101018C3081F48F
:100820008DE192E00E949E008FE192E00E949E0086
:1008300081E292E00E949E0083E292E00E949E008C
:10084000809101018A3049F40E949806811105C007
:10085000809101018F5F80930101809101018130BE
:1008600009F088CFC9ECD0E061E0CE010E94CB0056
:100870002196C43DD105C1F77DCF80910901811139
:1008800005C088E28093010163E001C060E081E37C
:10089000DF91CF910C94FF0681E080930B010895C6
:1008A00081E085BDEEE6F0E080818160808310927A
:1008B00089001092880010928B0010928A008AE1C1
:1008C00096E09093870080938600109280008BE1E1
:1008D00080938100EFE6F0E080818062808308955C
:1008E000809398051092C5001092C400E0ECF0E0EF
:1008F00080818D7F80835A9886E08093C2008CED42
:100900008093C10008958091190190911A018E3150
:100910009105A0F4019690931A01809319014E97C6
:1009200069F480911B01882349F010921B01E0912A
:100930001001F0911101309709F009940895809108
:100940001D01811119C081E080931C0180911F015C
:10095000E82FF0E031978150AFE8B5E020E090E07B
:10096000281720F43D9193272F5FFACFE157FA4FD4
:10097000908380E090E0089581E090E00895809178
:10098000C00085FFFCCF8091C1008E7F8093C100A5
:10099000E0911E01F0E0E157FA4F80818093C6009C
:1009A00080911E018F5F80931E01089581E08093E6
:1009B0001D0110921C0110921E015A9A8091C000D4
:1009C00085FFFCCF0C94BF041F920F920FB60F92BD
:1009D00011242F933F934F935F936F937F938F9344
:1009E0009F93AF93BF93EF93FF9390911E018091DC
:1009F0001F01981718F40E94BF0403C05A98109260
:100A00001D01FF91EF91BF91AF919F918F917F91C8
:100A10006F915F914F913F912F910F900FBE0F906B
:100A20001F90189580911D01811107C080911C01B4
:100A3000811103C080911B0102C080E090E08170B1
:100A400008951F93CF93DF93D82F192FC62F0E949D
:100A500012058823A9F0C930B0F49D2FAFE8B5E0A6
:100A6000ED2FF12F8E2F891B8C1718F481918D9308
:100A7000F9CFC0931F010E949F0480E090E005C061
:100A800081E090E002C082E090E0DF91CF911F9181
:100A900008951F920F920FB60F9211242F933F9338
:100AA0004F935F936F937F938F939F93AF93BF9376
:100AB000CF93EF93FF938091C0009091C100C091BC
:100AC000C6008C7109F0A4C091FF50C02C2F98E093
:100AD000322F3170832726959150D1F7811198C01C
:100AE0008C2F8F718093970590919805C295C6952C
:100AF000C77089132CC09C2F93709230D9F48091C9
:100B00001C0181110E94D60410921A011092190141
:100B10000E946D0680911B0181117AC081E0809353
:100B20001B01E0911201F0911301309709F470C09C
:100B300009956EC091110BC080E280938F05809360
:100B4000900582E080931F010E94D60461C081114C
:100B500008C08C2F8370813021F481E080931701CD
:100B600053C0C370C33009F053C0F7CF8091170151
:100B7000811115C0909197058091980598130FC029
:100B800086B56FE10E94760881E0890F8093980511
:100B9000E0910E01F0910F01309709F009958091D5
:100BA000180187FD0DC0909116019C2790931601A6
:100BB000E82FF0E0E756FA4FC0838F5F809318016B
:100BC0008091990540911801982F9F709E5F491759
:100BD000F8F090911601911115C08F7180939705CF
:100BE00090911701992329F0E0911401F0911501DA
:100BF00004C0E0910C01F0910D01309719F069E902
:100C000075E00995109217011092160110921801C3
:100C1000FF91EF91CF91BF91AF919F918F917F9174
:100C20006F915F914F913F912F910F900FBE0F9059
:100C30001F9018959091190680E0E92FE80FEF7149
:100C400024E0E29FF0011124E65EF94F2081222387
:100C500021F08F5F803289F708958091210181838F
:100C600080912201828380912301838381E08083AC
:100C700008950F931F93CF93DF938091190690E00F
:100C80008C01000F111F000F111FE801C65ED94F24
:100C900028812130B1F40E9412058823C9F06981AE
:100CA00088818F5F8883833011F4188211C06F7040
:100CB0006E5FC801855E994F0E94210582E088839E
:100CC00007C0211105C001968F71992780931906DD
:100CD000DF91CF911F910F910895E091190684E063
:100CE000E89FF0011124E65EF94F8081823051F4D3
:100CF000809120018F5F80932001803118F0108255
:100D0000109220010895809125018F5F8093250125
:100D1000E091190684E0E89FF0011124E65EF94FA6
:100D20008081823021F41092200181E08083089537
:100D3000EAE1F6E08081811107C0349686E0EA3965
:100D4000F807C1F781E0089580E0089515B888E1BB
:100D500088B91BB888E084B98AE387B984E08AB986
:100D6000EAEAF6E01082118212821382148215825E
:100D70000895FC0193E0F695E7959A95E1F7FF2732
:100D8000E05CFE4F3081282F2770832F90E0022EE9
:100D900002C0959587950A94E2F780FF0BC081E029
:100DA00090E001C0880F2A95EAF78095832380831D
:100DB00081E0089580E00895FC0193E0F695E795C1
:100DC0009A95E1F7FF27E35CFE4F3081282F2770CB
:100DD000832F90E0022E02C0959587950A94E2F742
:100DE00080FF0BC081E090E001C0880F2A95EAF7F0
:100DF00080958323808381E0089580E00895E82F23
:100E0000F0E0E655F94F60830895A82FA695A695C2
:100E1000A695B0E0782F7770FD01EA5BFE4F208148
:100E200030E0072E02C0359527950A94E2F721702D
:100E3000A75BBE4F3C91432F50E0072E02C0559553
:100E400047950A94E2F7417090E0FC01E75DFE4FA0
:100E5000241731F080818F5F8083211103C00CC083
:100E6000108208958930A0F081E090E001C0880FE1
:100E70007A95EAF7382B0AC0861758F081E090E09F
:100E800001C0880F7A95EAF7809538233C9308953E
:100E900008950895982F969596959695282F2095C4
:100EA0002770E82FF0E0E655F94F30813370892F35
:100EB00090E0323071F0333079F0FC01E656F94FB2
:100EC00081E090E001C0880F2A95EAF73130A1F463
:100ED00010C03091020102C030910301FC01E656BE
:100EE000F94F81E090E001C0880F2A95EAF733239B
:100EF00019F09081892B03C080959081892380838C
:100F00000895CF9380912801882339F11092280108
:100F100080912601811103C081E080932601809198
:100F200027018F5F863018F4809327010CC0109240
:100F3000270180910201882319F01092020103C059
:100F400081E08093020180910301882319F01092BF
:100F5000030103C081E08093030180912601C82F23
:100F6000CF73982F9295969596959370913069F4DA
:100F7000C11144C00E9463008091A2068093460183
:100F80008091A3068093470139C0923079F48FEEA7
:100F90008C0F8F3238F08C2F0E944A076AE08C2F1A
:100FA0000E9405078C2F0E944A0728C0933031F514
:100FB000982F9871903111F58770282F30E0F90142
:100FC000E75BFE4F4081D901AD5BBE4F9C919427FA
:100FD000F901E05CFE4F542F59236081562B50835A
:100FE000F901E35CFE4F242F209592232081922B60
:100FF00090834C93823011F4109226018091260147
:10100000882319F08F5F80932601CF91089581E0A6
:101010008093280108951F920F920FB60F9211240A
:101020000F900FBE0F901F9018951F920F920FB642
:101030000F9211240F900FBE0F901F9018951F92C2
:101040000F920FB60F9211248F9381E080934D0180
:101050008F910F900FBE0F901F9018951F920F92B7
:101060000FB60F9211248F9381E080934C018F91E2
:101070000F900FBE0F901F90189580914C01882300
:10108000A1F010924C010E9407080E944C040E949B
:1010900083048091040190910501019711F480EE81
:1010A0009EE29093050180930401089580914D0183
:1010B000811110924D0108950E94A606529A5A98E5
:1010C0000E94500489E10E9470040E94EE0078940E
:1010D00008950E945C080E9456080E943D080E94E4
:1010E00081070E94B8010E94B403F5CF991B79E0F3
:1010F00004C0991F961708F0961B881F7A95C9F7A8
:1011000080950895EE0FFF1F0590F491E02D09944E
:04111000F894FFCF81
:0611140001500101E80397
:00000001FF
